{
  "contractName": "VotingContract",
  "abi": [
    {
      "inputs": [],
      "payable": false,
      "stateMutability": "nonpayable",
      "type": "constructor"
    },
    {
      "anonymous": false,
      "inputs": [
        {
          "indexed": true,
          "internalType": "uint256",
          "name": "_candidateId",
          "type": "uint256"
        },
        {
          "indexed": false,
          "internalType": "string",
          "name": "_name",
          "type": "string"
        }
      ],
      "name": "CandidateAdded",
      "type": "event"
    },
    {
      "anonymous": false,
      "inputs": [
        {
          "indexed": true,
          "internalType": "address",
          "name": "_voter",
          "type": "address"
        },
        {
          "indexed": true,
          "internalType": "uint256",
          "name": "_candidateId",
          "type": "uint256"
        }
      ],
      "name": "Voted",
      "type": "event"
    },
    {
      "constant": true,
      "inputs": [
        {
          "internalType": "uint256",
          "name": "",
          "type": "uint256"
        }
      ],
      "name": "candidates",
      "outputs": [
        {
          "internalType": "uint256",
          "name": "id",
          "type": "uint256"
        },
        {
          "internalType": "string",
          "name": "name",
          "type": "string"
        },
        {
          "internalType": "uint256",
          "name": "voteCount",
          "type": "uint256"
        }
      ],
      "payable": false,
      "stateMutability": "view",
      "type": "function"
    },
    {
      "constant": true,
      "inputs": [],
      "name": "candidatesCount",
      "outputs": [
        {
          "internalType": "uint256",
          "name": "",
          "type": "uint256"
        }
      ],
      "payable": false,
      "stateMutability": "view",
      "type": "function"
    },
    {
      "constant": true,
      "inputs": [
        {
          "internalType": "address",
          "name": "",
          "type": "address"
        }
      ],
      "name": "hasVoted",
      "outputs": [
        {
          "internalType": "bool",
          "name": "",
          "type": "bool"
        }
      ],
      "payable": false,
      "stateMutability": "view",
      "type": "function"
    },
    {
      "constant": true,
      "inputs": [
        {
          "internalType": "address",
          "name": "",
          "type": "address"
        }
      ],
      "name": "votes",
      "outputs": [
        {
          "internalType": "address",
          "name": "voter",
          "type": "address"
        },
        {
          "internalType": "uint256",
          "name": "candidateId",
          "type": "uint256"
        }
      ],
      "payable": false,
      "stateMutability": "view",
      "type": "function"
    },
    {
      "constant": false,
      "inputs": [
        {
          "internalType": "string",
          "name": "_name",
          "type": "string"
        }
      ],
      "name": "addCandidate",
      "outputs": [],
      "payable": false,
      "stateMutability": "nonpayable",
      "type": "function"
    },
    {
      "constant": false,
      "inputs": [
        {
          "internalType": "uint256",
          "name": "_candidateId",
          "type": "uint256"
        }
      ],
      "name": "vote",
      "outputs": [],
      "payable": false,
      "stateMutability": "nonpayable",
      "type": "function"
    }
  ],
  "bytecode": "0x608060405234801561001057600080fd5b5060408051808201909152600b81526a43616e646964617465203160a81b6020820152610045906001600160e01b0361007e16565b60408051808201909152600b81526a21b0b73234b230ba32901960a91b6020820152610079906001600160e01b0361007e16565b610216565b600380546001908101918290556040805160608101825283815260208082018681526000838501819052958652848252929094208151815591518051919492936100ce939085019291019061017b565b50604082015181600201559050506003547fe83b2a43e7e82d975c8a0a6d2f045153c869e111136a34d1889ab7b598e396a3826040518080602001828103825283818151815260200191508051906020019080838360005b8381101561013e578181015183820152602001610126565b50505050905090810190601f16801561016b5780820380516001836020036101000a031916815260200191505b509250505060405180910390a250565b828054600181600116156101000203166002900490600052602060002090601f016020900481019282601f106101bc57805160ff19168380011785556101e9565b828001600101855582156101e9579182015b828111156101e95782518255916020019190600101906101ce565b506101f59291506101f9565b5090565b61021391905b808211156101f557600081556001016101ff565b90565b61066d806102256000396000f3fe608060405234801561001057600080fd5b50600436106100625760003560e01c80630121b93f1461006757806309eef43e146100865780632d35a8a2146100c05780633477ee2e146100da578063462e91ec1461017d578063d8bff5a514610223575b600080fd5b6100846004803603602081101561007d57600080fd5b503561026c565b005b6100ac6004803603602081101561009c57600080fd5b50356001600160a01b03166103b4565b604080519115158252519081900360200190f35b6100c86103c9565b60408051918252519081900360200190f35b6100f7600480360360208110156100f057600080fd5b50356103cf565b6040518084815260200180602001838152602001828103825284818151815260200191508051906020019080838360005b83811015610140578181015183820152602001610128565b50505050905090810190601f16801561016d5780820380516001836020036101000a031916815260200191505b5094505050505060405180910390f35b6100846004803603602081101561019357600080fd5b8101906020810181356401000000008111156101ae57600080fd5b8201836020820111156101c057600080fd5b803590602001918460018302840111640100000000831117156101e257600080fd5b91908080601f01602080910402602001604051908101604052809392919081815260200183838082843760009201919091525092955061047b945050505050565b6102496004803603602081101561023957600080fd5b50356001600160a01b0316610578565b604080516001600160a01b03909316835260208301919091528051918290030190f35b3360009081526020819052604090205460ff16156102c2576040805162461bcd60e51b815260206004820152600e60248201526d20b63932b0b23c903b37ba32b21760911b604482015290519081900360640190fd5b6000811180156102d457506003548111155b61031a576040805162461bcd60e51b815260206004820152601260248201527124b73b30b634b21031b0b73234b230ba329760711b604482015290519081900360640190fd5b336000818152602081815260408083208054600160ff19909116811790915585845280835281842060029081018054830190558251808401845286815280850188815287875291909452828520935184546001600160a01b0319166001600160a01b0390911617845551920191909155518392917f4d99b957a2bc29a30ebd96a7be8e68fe50a3c701db28a91436490b7d53870ca491a350565b60006020819052908152604090205460ff1681565b60035481565b600160208181526000928352604092839020805481840180548651600296821615610100026000190190911695909504601f8101859004850286018501909652858552909491939290919083018282801561046b5780601f106104405761010080835404028352916020019161046b565b820191906000526020600020905b81548152906001019060200180831161044e57829003601f168201915b5050505050908060020154905083565b600380546001908101918290556040805160608101825283815260208082018681526000838501819052958652848252929094208151815591518051919492936104cb939085019291019061059d565b50604082015181600201559050506003547fe83b2a43e7e82d975c8a0a6d2f045153c869e111136a34d1889ab7b598e396a3826040518080602001828103825283818151815260200191508051906020019080838360005b8381101561053b578181015183820152602001610523565b50505050905090810190601f1680156105685780820380516001836020036101000a031916815260200191505b509250505060405180910390a250565b600260205260009081526040902080546001909101546001600160a01b039091169082565b828054600181600116156101000203166002900490600052602060002090601f016020900481019282601f106105de57805160ff191683800117855561060b565b8280016001018555821561060b579182015b8281111561060b5782518255916020019190600101906105f0565b5061061792915061061b565b5090565b61063591905b808211156106175760008155600101610621565b9056fea265627a7a7231582034c046ea7235a3f103353496bf4efc9bfa4476de33477697308e84b0a2ac883364736f6c63430005100032",
  "source": "pragma solidity ^0.5.16;\n\ncontract VotingContract {\n    struct Candidate {\n        uint id;\n        string name;\n        uint voteCount;\n    }\n\n    // Define the Vote struct here\n    struct Vote {\n        address voter;\n        uint candidateId;\n    }\n\n    mapping(address => bool) public hasVoted;\n    mapping(uint => Candidate) public candidates;\n    mapping(address => Vote) public votes; // Now the compiler knows what a Vote is\n    uint public candidatesCount;\n\n    event Voted(address indexed _voter, uint indexed _candidateId);\n    event CandidateAdded(uint indexed _candidateId, string _name);\n\n    constructor() public {\n        addCandidate(\"Candidate 1\");\n        addCandidate(\"Candidate 2\");\n    }\n\n    function addCandidate(string memory _name) public {\n        candidatesCount++;\n        candidates[candidatesCount] = Candidate(candidatesCount, _name, 0);\n        emit CandidateAdded(candidatesCount, _name);\n    }\n\n    function vote(uint _candidateId) public {\n        require(!hasVoted[msg.sender], \"Already voted.\");\n        require(_candidateId > 0 && _candidateId <= candidatesCount, \"Invalid candidate.\");\n\n        hasVoted[msg.sender] = true;\n        candidates[_candidateId].voteCount++;\n        // Record the vote with a new Vote struct instance\n        votes[msg.sender] = Vote(msg.sender, _candidateId);\n\n        emit Voted(msg.sender, _candidateId);\n    }\n}\n",
  "sourcePath": "/Users/rileythompson/blockchainClass/blockchainproject/contracts/VotingContract.sol",
  "compiler": {
    "name": "solc",
    "version": "0.5.16+commit.9c3226ce.Emscripten.clang"
  },
  "schemaVersion": "3.4.16",
  "updatedAt": "2024-04-08T17:59:42.363Z",
  "networkType": "ethereum",
  "devdoc": {
    "methods": {}
  },
  "userdoc": {
    "methods": {}
  }
}